:020000040800F2
:10000000500C0020D1010008A90D000821090008AA
:10001000A90B00086F060008ED140008000000009E
:10002000000000000000000000000000E90E0008D1
:100030003908000800000000250E0008DD12000845
:10004000EB010008EB010008EB010008EB010008E0
:10005000EB010008EB010008EB010008EB010008D0
:10006000EB010008EB010008EB010008EB010008C0
:10007000EB010008EB010008EB010008EB010008B0
:10008000EB010008EB010008EB010008EB010008A0
:10009000EB010008EB010008EB010008EB01000890
:1000A000EB010008EB010008EB010008EB01000880
:1000B000EB010008EB010008EB010008EB01000870
:1000C000EB010008EB010008EB010008EB01000860
:1000D000EB010008EB010008EB010008EB01000850
:1000E000EB010008EB010008EB01000800F002F84A
:1000F00000F05FF80AA090E8000C82448344AAF163
:100100000107DA4501D100F054F8AFF2090EBAE860
:100110000F0013F0010F18BFFB1A43F0010318473B
:100120009C430000BC4300000A444FF0000C10F850
:10013000013B13F0070408BF10F8014B1D1108BF65
:1001400010F8015B641E05D010F8016B641E01F805
:10015000016BF9D113F0080F1EBF10F8014BAD1C55
:100160000C1B09D16D1E58BF01F801CBFAD505E073
:1001700014F8016B01F8016B6D1EF9D59142D6D3CD
:10018000704700000023002400250026103A28BFF5
:1001900078C1FBD8520728BF30C148BF0B607047F9
:1001A000642900F07180002070471FB51FBD10B595
:1001B00010BD00F022FA1146FFF7F7FF01F072FAC6
:1001C00000F040FA03B4FFF7F2FF03BC00F048FA76
:1001D0000948804709480047FEE7FEE7FEE7FEE7DB
:1001E000FEE7FEE7FEE7FEE7FEE7FEE70448054917
:1001F000054A064B70470000E1120008ED000008B8
:1002000050060020500C002050080020500800200C
:100210000FB41CB5074B06AA7B44694600900598AD
:1002200000F0D3F90020694600F0E2F91CBC5DF84B
:1002300014FB0000D503000070B504468569006812
:10024000C10601D5302600E02026C00707D070BDCA
:10025000D4E9012130469047206A401C20626D1E7F
:10026000F6D570BD70B5044685690078C00707D122
:1002700070BDD4E9012120209047206A401C2062F3
:100280006D1EF6D570BD00002DE9F0410646002434
:1002900010687529314616A510D0AFF300800028EC
:1002A00002DA404213A507E031688A0701D512A59A
:1002B00002E0490704D511A5012401E0AFF3008055
:1002C00000210A2206F1240709E0B0FBF2FCB0FB92
:1002D000F2F302FB1C00303078541846491C002809
:1002E000F3D123462A463046BDE8F04100F00FB96D
:1002F000000000002D0000002B0000002000000086
:100300002DE9F05F894604464FF0000ADFF824B17A
:10031000FB44C0F820A02046E168884700287DD033
:10032000252806D0D4E901219047206A401C20628C
:10033000F1E700255F462046E16888472028064609
:1003400007DB312E05D2B81910F8200C08B105438F
:10035000F1E7A80701D525F00405C4F81CA0002783
:10036000C4F818A02A2E09D0304601F093F938B30A
:1003700004EB8708303EC8F8186019E059F8041BF0
:10038000204604EB87029161E1688847012F064609
:1003900018D1E069002820DA25F020051DE0D8F802
:1003A000180000EB800006EB40003038C8F8180059
:1003B0002046E1688847064601F06CF90028EED136
:1003C000012F0AD02E2E08D12046E16888477F1CD5
:1003D0000646022F45F02005C4DBA069002803DA99
:1003E000404245F00105A061E80701D025F0100565
:1003F000A6B1A6F14100192802D8203645F40065BF
:100400004A463146204625604D46FFF7C9FE60B199
:10041000012807D0ED1D25F0070000E007E000F1FE
:10042000080978E705F1040975E730467AE7206A9C
:10043000BDE8F09F9A40000010B5431C02E010F8A0
:10044000011B71B18107FAD14FF0013202C88C1A39
:100450008C4314EAC211F9D0C01A0A0603D0C01E98
:1004600010BDC01A10BD0A0401D0801E10BD0902C3
:10047000FCD0401E10BD4FF000020429C0F01280D5
:1004800010F0030C00F01B80CCF1040CBCF1020F47
:1004900018BF00F8012BA8BF20F8022BA1EB0C011C
:1004A00000F00DB85FEAC17C24BF00F8012B00F812
:1004B000012B48BF00F8012B70474FF0000200B538
:1004C000134694469646203922BFA0E80C50A0E877
:1004D0000C50B1F12001BFF4F7AF090728BFA0E825
:1004E0000C5048BF0CC05DF804EB890028BF40F8F1
:1004F000042B08BF704748BF20F8022B11F0804F33
:1005000018BF00F8012B70477047704770472DE9FE
:10051000F0470D4699469246044600F124080168CA
:10052000880604D5E06921F01001216000E0012077
:10053000A84201DD471B00E00027A1697A1902EB00
:100540000900081AA0612078C00602D42046FFF7EF
:1005500073FE002608E0D4E901211AF8060090474E
:10056000206A401C761C20624E45F4DB2078C006D1
:100570000AD52046FFF760FE06E0D4E901213020CD
:100580009047206A401C2062381EA7F10107F4DC66
:1005900007E0D4E9012118F805009047206A401CC3
:1005A0002062281EA5F10105F3DC2046FFF75AFE64
:1005B0002078000602D50220BDE8F0870120FBE785
:1005C00001694A1C02610878704700B58FB0CDE917
:1005D00001310021059105497944CDE90310114607
:1005E0006846FFF78DFE0FB000BD0000E5FFFFFF7E
:1005F0000A6802F8010B0A607047754600F02CF893
:10060000AE4605006946534620F00700854618B0FF
:1006100020B5FFF7EBFDBDE820404FF000064FF09E
:1006200000074FF000084FF0000B21F00701AC4627
:10063000ACE8C009ACE8C009ACE8C009ACE8C00946
:100640008D46704710B50446AFF300802046BDE8E4
:100650001040FFF7B7BD000000487047F0050020CC
:1006600001491820ABBEFEE7260002007047FEE7F6
:100670002DE9F74F6E4E044682B0707803287DD185
:100680004FF0000A86F80BA0204600F08FFA4FF0DA
:1006900018080D274FF0010B96F90B0000EB8000B6
:1006A00054F8209000F00CFA7070624801F01CF8C9
:1006B0000A2234215F48049B01F0CEF980230D22E9
:1006C00001215C48009701F057F9002505EB8500F2
:1006D000032154F8203005EB450008EB800082B27E
:1006E000544801F0B9F96D1C042DEFDB504901228B
:1006F000C91D081F02F030F84D4901220831081FBA
:1007000002F02AF84A4902220931081F02F024F8AF
:10071000474901220A31081F02F01EF8B079009003
:1007200073793279F178434801F004F8414801F0D7
:10073000D9F97078012804D002280BD004282FD0D2
:1007400010E0F07A401C40B2F07203280ADB03206C
:10075000F07207E0F07A401E40B2F072002801DC2F
:1007600086F80BA096F90B0060B3012835D002285B
:100770004ED0032890D186F807B000E018E033216E
:1007800000EB8000317254F82000FFF755FE00EBBB
:100790004001062000EB410070720C20B0722DE089
:1007A000244800F0A1FF204600F0A2FE86F801A038
:1007B00003983021A0EB800001EB0010308205B0DF
:1007C000BDE8F08F86F807B00E203072206827E071
:1007D0004A460399FFF74CFF5EE786F807B01B21F6
:1007E00000EB8000317254F82000FFF725FE00EB8B
:1007F0004000062101EB40007072B77296F90B00C1
:1008000000EB800004EB800080680028E4D0DFE784
:1008100086F807B0262100EB8000317254F82000E2
:10082000FFF70AFE00EB4001062000EB4100E3E782
:100830001C0000205C010020704700B502464FF408
:100840007A7302E0184600F003F8521EFAD200BD97
:1008500000EBC000C1004FF0E02041610021816148
:10086000052101610169C903FCD5042101617047BB
:10087000F0B5CA78002502F00F03D20601D58A78B8
:1008800013430A784FF00F0E12F0FF0F4FF00102E2
:100890001CD004680F8802FA05F63740B74211D120
:1008A0004FEA850C0EFA0CF724EA070703FA0CF45A
:1008B0003C43CF78282F02D0482F02D002E0466177
:1008C00000E006616D1C082DE4D304600C88FF2C49
:1008D0001ED944685FF0000606F1080702FA07F522
:1008E0000F882F40AF420FD14FEA860C0EFA0CF75B
:1008F000BC4303FA0CF73C43CF78282F00D1456165
:10090000CF78482F00D10561761C082EE4D34460CF
:10091000F0BD0246002092680A4200D001207047D4
:10092000FEE702460020938A128B43EA024323F03B
:100930007F42914300D1012070470029018802D0F5
:1009400041F0010101E021F0010101807047000048
:10095000F8B50121480500F073FA0121082000F0E4
:100960006FFA4020ADF800001C240B4E8DF80340B8
:1009700003258DF8025069463046FFF779FF802045
:10098000ADF800008DF803408DF8025069463046FE
:10099000FFF76EFFF8BD0000000C01400029018840
:1009A00002D041F4807101E021F480710180704730
:1009B0000029018802D041F4007101E021F40071A6
:1009C000018070470CB50246002000920A0F21F00A
:1009D0007F41019202D0009A143202E0009A090C81
:1009E0001832009212680A4200D001200CBD0000AB
:1009F00070B50446808886B00D4620F03F066846F4
:100A000000F02AFA27490298B0FBF1F189B20E43AF
:100A1000A680228822F001022280234B2A689A4273
:100A20001CD85200B0FBF2F080B2042800D204209F
:100A3000491C2184A083208840F001002080218867
:100A40004FF6F5300140A8886A891043084320809A
:100A5000A88929890843208106B070BDEB88A3F5D9
:100A60003F46FF3E0BD002EBC20303EB0212B0FB8A
:100A7000F2F080B240F48040020506D007E002EBBD
:100A80004202B0FBF2F080B2F6E740F001004FF412
:100A9000967251434FF47A72B1FBF2F140F4004088
:100AA000C6E7000040420F00A086010012B141F0ED
:100AB000010101E001F0FE010182704701827047EF
:100AC00070B52D4D002402212846FFF722FF012892
:100AD00009D11420FFF7B1FE02212846FFF719FFC4
:100AE0000128F6D001244FF4006631462846FFF76E
:100AF00010FF012809D11420FFF79FFE3146284638
:100B0000FFF707FF0128F6D0022420212846FFF72F
:100B100000FF012809D11420FFF78FFE202128466D
:100B2000FFF7F7FE0128F6D003244FF48076314614
:100B30002846FFF7EEFE012809D11420FFF77DFEBD
:100B400031462846FFF7E5FE0128F6D004244FF48D
:100B5000806631462846FFF7DCFE012809D11420C3
:100B6000FFF76BFE31462846FFF7D3FE0128F6D08B
:100B70000524204670BD0000000C014008B501218D
:100B8000082000F05DF928208DF8030040F622507F
:100B9000ADF8000003208DF8020069460148FFF718
:100BA00067FE08BD000C0140FEE700002DE9FF5F75
:100BB0004FF00A094FF04A0A05468DF808908DF863
:100BC0000CA0007C10B1012842D079E0DFF86CB1B4
:100BD0005B4E5C4800F088FD5BA39DF80820342143
:100BE000584800F039FF2821CDE9001B9DF8082066
:100BF0000B462C2153481A3200F036FF504F002488
:100C000020374FF0200811E004EB44009DF8082045
:100C100057F820102023CDE90081318A921D01EB85
:100C2000001081B2474800F01FFF641CB078844276
:100C3000EADB082203A902A801F08EFD414800F07A
:100C400051FF9DF808009DF80C108842C1D137E093
:100C50003C4800F049FD3EA39DF808203421394866
:100C600000F0FAFE9DF808208023D01C009001219E
:100C70003448D21C00F080FE5FF00004E86804EB0A
:100C8000840150F821309DF8081004EB440001EB7A
:100C900080000E3082B203212A4800F0DDFE641C81
:100CA000042CEBDB082203A902A801F055FD25481E
:100CB00000F018FF9DF808009DF80C108842C7D17D
:100CC0008DF808A08DF80C901E4800F00DFD20A3B3
:100CD0009DF8082034211B4800F0BEFE9DF8082036
:100CE0008023D01C009001211648D21C00F044FE45
:100CF0005FF0000404EB84009DF8081055F82030E4
:100D000004EB440001EB80000E3082B203210D4859
:100D100000F0A2FE641C042CECDB082203A902A84C
:100D200001F01AFD074800F0DDFE9DF808009DF86F
:100D30000C108842C8D1BDE8FF9F0000C8420008DF
:100D40001C0000205C0100204D454E553A0000007B
:100D500047414D45000000000A48002182783B2AA7
:100D600003D981704278521C427042783B2A03D9E1
:100D700041700278521C02700278172A00D9017063
:100D8000704700003400002006494869401C486153
:100D9000212805DD0020486118318878401C8870C2
:100DA000704700001C0000207047000070B50F2342
:100DB000C47801780122F4B1144C2468457804F415
:100DC000E064C4F5E064240AC4F10406E3408478D6
:100DD000B5401C402C4301F1E021230181F800348F
:100DE000007800F01F018A404009800000F1E020F7
:100DF000C0F8002170BD01F01F008240480980004A
:100E000000F1E020C0F8802170BD00000CED00E092
:100E10000249084302490860704700000000FA05D3
:100E20000CED00E070470000044A0029D16901D0B0
:100E3000014300E08143D16170470000001002408F
:100E4000044A0029916901D0014300E08143916186
:100E5000704700000010024030B51F494A6812F088
:100E60000C031E4A03D0042B01D0082B21D00260B2
:100E70004A680F231A4C03EA1212A35C0268DA4094
:100E800042604B68072505EA1323E35C22FA03F36B
:100E900083604B6805EAD323E35CDA40C2604968AB
:100EA000032303EA9131231F595CB2FBF1F1016185
:100EB00030BD4A684B6802F470124FF0020413F41C
:100EC000803F04EB924202D04B689B0301D5054B57
:100ED00000E0024B5A43CAE70010024000127A00B9
:100EE0000400002000093D00704700000CB50021FF
:100EF000264801910091026842F4803202604FF46A
:100F0000A063026802F400320092019A521C01921E
:100F1000009A12B9019A9A42F3D10268920333D52A
:100F2000012100911A490A6842F010020A600A6819
:100F300022F003020A600A6842F002020A60416875
:100F4000416041684160416841F4806141604168AD
:100F500021F47C114160416841F4E811416001686D
:100F600041F08071016001688901FCD5416821F080
:100F700003014160416841F0020141604168C1F3F1
:100F800081010229FAD10CBD00910CBD0010024074
:100F90000020024010B5244C88B0A07B002840D12E
:100FA000FFF7DAFEFFF78CFD60732049204800F060
:100FB000A2FD1F4800F098FB012480230822002195
:100FC0001B4800F033FC802338220021184800F031
:100FD0002DFC641C0F2CF0DB134C16A11834A078E8
:100FE00000906378227801A8FFF712F901AB1C2268
:100FF00019210F4800F030FD12490D4800F07BFD2B
:10100000E0790090A379A2880FA104A8FFF700F966
:1010100004AB30221621064800F01EFD044800F003
:1010200061FD08B010BD00001C000020BC370008A6
:101030005C010020253032643A253032643A253094
:101040003264000003320008253034642F2530322A
:10105000642F2530326400002DE9FC5F0746FFF75E
:101060002FFD6E4C3021DFF8B8A1607360704FF037
:1010700000094FF0280B04F120054FF0200801284B
:1010800002D0022845D085E0A078B4F91020801E57
:10109000A0EB8000B2EB001F7CDD2078401C2070AC
:1010A000B1FBF7F030E05F4800F01EFB5B483946CB
:1010B000103001F049FBCDE900BA282324222C216D
:1010C000584800F0D1FC002610E000BF06EB4600B7
:1010D000202355F820101022CDE90081218A01EB50
:1010E000001081B24F4800F0BFFC761CA078864209
:1010F000ECDB4DA30A2234214A4800F0ADFC4948FC
:1011000000F0F0FC207B401E207310F0FF0FCAD1CE
:101110003EE0B4F9100030283CDA2078401E207000
:10112000B1FBF7F030E03F4800F0DEFA3B483946CB
:10113000103001F00DFBCDE900BA282324222C2128
:10114000384800F091FC002610E000BF06EB460096
:10115000202355F820101022CDE90081218A01EBCF
:10116000001081B22F4800F07FFC761CA0788642E8
:10117000ECDB2DA30A2234212A4800F06DFC29481B
:1011800000F0B0FC207B401E207310F0FF0FCAD18E
:1011900084F80D90207828B101280FD002281FD0A4
:1011A000032839D120A30A2234211E4800F054FC20
:1011B0001B4B0A22C83352211A481CE01AA30A22E8
:1011C0003421184800F048FC154B0A22D233522132
:1011D000144800F041FCBDE8FC5F124800F082BCFE
:1011E00011A30A2234210F4800F036FC0C4B0A22CE
:1011F000DC3352210B4800F02FFC0A4800F072FC4F
:10120000217801EB410005EB8000D0E9012002B01C
:10121000BDE8F05FFFF72CBABDE8FC9F1C00002082
:10122000C84200085C0100204D454E553A000000C0
:1012300070B5084C0546A07B012809D1FFF7A4FD35
:101240002846FFF709FF60780428F7D10020A07333
:1012500070BD00001C0000202DE9FC4100F068F882
:101260001A4D04200121A870194800F057FC0021F4
:10127000174800F050FC1749154800F03CFC16498F
:101280002820CDE90001034624222C21104800F03B
:10129000EBFB002405F1200620270FE004EB4400BF
:1012A000202356F820101022CDE90071298A01EB85
:1012B000001081B2064800F0D7FB641CA878844275
:1012C000ECDBBDE8FC41024800F00CBC1C00002037
:1012D0005C01002088270008C84200087047000011
:1012E0000F4810B5016841F00101016041680D4AE5
:1012F0001140416001680C4A11400160016821F40D
:1013000080210160416821F4FE0141604FF41F011A
:101310008160FFF7EBFD05494FF00060086010BDEC
:10132000001002400000FFF8FFFFF6FE08ED00E0AD
:101330000548A0F1300100F1500288600A62C862DD
:10134000D0314164C86070476C0000200029818959
:1013500002D041F4005101E021F400518181704735
:1013600010B586B001210420FFF76AFD0121880332
:10137000FFF766FD4FF40070ADF8100018208DF8EF
:1013800013000320204C8DF8120004A92046FFF71B
:101390006FFA2015ADF8100004208DF8130004A991
:1013A0002046FFF765FA4FF4E13000900020ADF8D9
:1013B0000400ADF80600ADF80800ADF80C000C20F4
:1013C000124CADF80A006946204600F039F84FF497
:1013D000A060FFF71DFD25208DF8140001218DF878
:1013E00015108DF816108DF8171005A8FFF7DEFC04
:1013F000012240F22551204600F00AF80121204642
:10140000FFF7A4FF06B010BD0008014000380140FE
:1014100010B5C1F3421301F01F040121A140012BBB
:1014200007D0022B07D01430002A026805D00A43E7
:1014300004E00C30F8E71030F6E78A43026010BD94
:1014400030B50446008A85B00D464CF6FF71084061
:10145000E98801432182A1894EF6F3100140A88852
:101460002A8910436A890A431043A081A08A4FF653
:10147000FF410840A9890143A1826846FFF7ECFCBF
:101480001948844201D1039800E00298A189090417
:1014900000EBC00101EB0010296801D5490000E014
:1014A0008900B0FBF1F06422B0FBF2F109010B09F5
:1014B0006FF018056B4300EB8300A3891D044FF008
:1014C000320306D503EBC000B0FBF2F000F00700DA
:1014D00005E003EB0010B0FBF2F000F00F00084352
:1014E000208105B030BD000000380140FEE700005B
:1014F0002DE9FF470A264A2705468DF808608DF832
:101500000C705D4800F0F0F85CA39DF808203421D1
:10151000594800F0A1FA9DF808208023D01C0090C3
:1015200001215548D21C00F027FA002404EB840066
:101530009DF8081055F8203004EB440001EB8000C2
:101540000E3082B203214C4800F086FA641C042C51
:10155000ECDB082203A902A801F0FEF8464800F0DF
:10156000C1FA9DF808009DF80C108842C9D18DF889
:1015700008708DF80C60287CD0B3012836D13E4825
:1015800000F0B2F83DA39DF8082034213A4800F05D
:1015900063FA9DF808208023D01C00900121364872
:1015A000D21C00F0E9F90024E86804EB840150F84B
:1015B00021309DF8081004EB440001EB80000E3050
:1015C00082B203212C4800F047FA641C042CEBDBA8
:1015D000082203A902A801F0BFF8274800F082FA08
:1015E0009DF808009DF80C108842C8D1BDE8FF871F
:1015F000FFE7DFF89080244D4FF028091E4800F0E7
:1016000073F8082203A902A801F0A6F81FA39DF809
:1016100008203421184800F01FFACDE900989DF801
:10162000082028232C2114481A3200F01DFA164EE7
:1016300000242036202711E004EB44009DF8082008
:1016400056F820102023CDE90071298A921D01EB64
:10165000001081B2084800F007FA641CA8788442A0
:10166000EADB054800F03EFA9DF808009DF80C10F2
:101670008842C3D1BAE700005C01002047414D45D4
:1016800000000000C84200081C0000204D454E55D7
:101690003A00000030380A2801D2012070470020AB
:1016A00070470000FFF76AFAFFF752F900F026F8DA
:1016B000FFF756FE0A4C002001252070FFF764FB5F
:1016C000FFF7FEF9032805D1064800F00DF8FFF7F3
:1016D000C3FD2570FFF75EFC0C20FFF7A9FDEDE7C9
:1016E0002A0000205C01002001680A7C90F8381074
:1016F000406B5143C900FEF7BEBE000010B5094B58
:10170000094A0A490A4800F045FA094800F0B1FDC3
:101710000021074800F0BDFDBDE810400448FFF778
:10172000E3BF00003B20000835230008E43F000829
:101730005C0100202DE9F84F83460A9E9A469019D5
:1017400080B201EB0A04009015460F46A3B258463A
:1017500000F0B0F900282FD04FF0000953462A4678
:1017600039465846CDF8009000F066F8022E23D393
:10177000B61E360405F10105360CADB214D04FF09B
:10178000010833462A4639465846CDF8008000F015
:1017900053F8641EA1B233462A465846CDF800805D
:1017A00000F04AF8A81985B253462A4639465846E9
:1017B000CDF8009000F040F8BDE8F88F2DE9F04139
:1017C000044690F870001F4615460E4630B10128B9
:1017D00009D002280CD0032815D10FE0E16D204676
:1017E0008847284408E0E16D20468847301A09E020
:1017F000E16D20468847281A85B204E0E16D204655
:101800008847304486B22846A4F86460A4F866008D
:1018100039460025204600F0B3FB010003D02046E6
:1018200000F0DEFA85B22846BDE8F08138B5002424
:10183000009400F001F838BD3FB581B0044690F83F
:101840008C00089900283AD0BDF81000002836D046
:10185000012811D9022902D0032907D00CE0BDF8D4
:101860000820101A401CADF8080005E0BDF80C2057
:10187000101A401CADF80C0011F0010521D0B4F88D
:101880004810BDF80800814219D8B4F84A108142C6
:1018900015D9B4F84E30B4F84C2004A90DF10C0061
:1018A00000F010FA00280AD00095206BBDF8103027
:1018B000BDF80C208568BDF808102046A84705B083
:1018C00030BDB4F84C10BDF80C008142F7D8B4F824
:1018D0004E108142F3D9B4F84A30B4F8482004A934
:1018E00002A8DDE72DE9FF4F81B090F89270DDF896
:1018F00038901D46884606469FB1002083460398CF
:101900004146401C80B2009008EB050083B230468F
:10191000039A00F0CFF800282BD001244FF0000AE2
:1019200023E00120EAE700BF99F80000204202D03E
:1019300086F8927004E096F8910048B986F892B063
:101940000123CDF800A041463046039AFFF774FF0B
:1019500008F101001FFA80F8600010F0FF0402D1C6
:10196000012409F101096D1EADB2002DDCD186F80C
:10197000927005B0BDE8F08F2DE9FF5F1C460E9810
:101980004FF00009A14201D90B1B00E0631A9DB280
:10199000824201D9131A00E0831A9EB2AE420AD9DC
:1019A0002B4635461E460B4611461A46234604462C
:1019B0004FF001091846A14205D90B4621461C46A5
:1019C0001346024618464FEA5508904201D90120B5
:1019D00001E04FF0FF308246A4F57F409346FF3888
:1019E00001D1641EA4B20F4618E000BFB9F1000F88
:1019F00018D03A465946009800F017F8A8EB0600B0
:101A000000B25FEA000807D50BEB0A001FFA80FB63
:101A100008EB05000FFA80F87F1CBFB2A742E5D99A
:101A2000BDE8FF9F5A463946E5E708B5B0F84C30A7
:101A3000934210D8B0F84E3093420CD9B0F84830E9
:101A40008B4208D8B0F84A308B4204D90023009367
:101A50000123FFF7F1FE08BD30B4024C446030BCF6
:101A600000F05DB9F92200082DE9F84F8246DDE962
:101A70000A57D81DC0F3CC08501980B21C460090FC
:101A8000081983B216468946504600F013F800281C
:101A90000ED00BE023463246494650460097FFF7EA
:101AA00021FF761C6D1E4744B6B2ADB2002DF1D1B8
:101AB000BDE8F88F70B50D461E460446B0F84E10CE
:101AC000B0F84C00049B00F0D9FA002809D0B4F813
:101AD0004A10B4F8480033462A46BDE8704000F08A
:101AE000CDBA70BD10B5044600F057FB2046BDE8E6
:101AF000104000F0C6BB10B50446806D884209D086
:101B000004F17400A16500F013FB2046BDE810400D
:101B100000F05CB810BD80F87010704780F86D1050
:101B2000704700000149C16570470000951D00081D
:101B30000021A0F85010A0F854104FF6FF71A0F843
:101B40005210A0F85610016B4968084770B504465A
:101B500000250498A565E362616384F8382084F861
:101B6000395084F86D5084F8915084F88D500121DB
:101B700084F8921084F89310206301682046884707
:101B80002046FFF7D5FF2046FFF7CCFF84F87050C2
:101B900070BD00007CB50C46009313460546084A0C
:101BA000084900F07EFB01A800F0BCFA0146064B94
:101BB00000949DF804202846FFF7C8FF7CBD000074
:101BC000D9240008012600089520000810B5816D71
:101BD00000291AD090F9813080F88E3090F9822057
:101BE00080F88F2090F88D1000290ED001290DD09B
:101BF00090F97E4090F980100C449C4201DD80F801
:101C00008E408A4201DD80F88F1010BD90F983105C
:101C10008B4201DA80F88E1090F98410F1E72BB135
:101C2000012B05D0022B06D0104402E0084400E04E
:101C3000801A80B27047401AFBE72BB1012B05D008
:101C4000022B06D0401A02E0104400E0084480B2A3
:101C50007047801AFBE738B50446B0F8560000908C
:101C6000B4F85230B4F85420B4F850102046FFF7BE
:101C700021FF18B3012084F88C00B4F84810B4F8A0
:101C80005000814201D2A4F84800B4F84A10B4F8D8
:101C90005200814201D9A4F84A00B4F84C10B4F8BB
:101CA0005400814201D2A4F84C00B4F84E10B4F8AC
:101CB0005600814201D9A4F84E0038BD002084F8B6
:101CC0008C0038BD30B504880D882544ADB2AC42D7
:101CD00005D99C4202D25D1EADB200E014469C4282
:101CE00001D2954201D8002030BD944200D2144662
:101CF0009D4200D91D460480281B0880012030BD6C
:101D000038B5C58F049C0094521BC46A92B2A04798
:101D100038BD38B5049C0094FFF7F2FF38BD2DE9BB
:101D2000F0471C4691468846064600F009FD00250E
:101D30004FF6FF7772682178304690470346B842E5
:101D400025D0641CA3F57F40FE38F3D04A464146B7
:101D50003046FFF733FD96F8701031B1012907D0F6
:101D6000022908D003290FD10AE008EB000104E0A2
:101D700009EB000106E0A8EB00011FFA81F803E07F
:101D8000A9EB00011FFA81F9284485B2D2E7284661
:101D9000BDE8F0870020704710B50C4600F006F84B
:101DA0000122641EA240801A40B210BD30B5056801
:101DB000047B2A78E2406318DBB2082B09D36D1C40
:101DC00005602D78C4F10804A5401543083BEAB22C
:101DD000DBB201248C40641E14400373204630BDE6
:101DE0002DE9F843054600F1600400F00CF915F9FF
:101DF0006B6F2046E97BFFF7CFFF8146297C2046A9
:101E0000FFF7CAFF0746697C20466B3DFFF7C4FF1A
:101E1000804694F90A00002857DDF019404247B285
:101E2000237CA0883A464946FFF7F9FEA080237C30
:101E30003A46E0884946FFF700FFE080A188277C0A
:101E400002460B4637B1012F0AD0022F40D0032F94
:101E50000FD146E094F90A7030443B449BB207E04E
:101E6000891B491C94F90A705B1C89B29BB23844E7
:101E700080B200902846FFF71DFE30B3002020728C
:101E800084F8090095F876102046FFF78FFF814609
:101E900095F877102046FFF789FF0746002249464C
:101EA000284600F027F801223946284600F022F89B
:101EB00001212046FFF77AFF0028EFD194F90900AD
:101EC000B042DFDBA07B85F892004046BDE8F88396
:101ED00094F90A705B1CC91B491C89B29BB2921B06
:101EE00004E094F90A7033449BB2D21B521C92B2A4
:101EF000401CBDE72DE9F74F84B00D46049C94F8D3
:101F0000687094F869806034A07AC01BC6B20196EC
:101F1000B54200D201954FFA88F279B2A088B4F8A0
:101F200006B0237C92468946FFF779FE0290237C17
:101F3000524649465846FFF780FE0246069808B1C9
:101F4000A17B02E0607B50B9E17B049880F892109D
:101F5000207C0090DDE901310498FFF76DFCB5426B
:101F600007D3A81BC5B208F10100002700F0FF0845
:101F7000CAE77819207284F8098007B0BDE8F08FAD
:101F800070B50D460146806D1730FF2D10D8612DBC
:101F900002D3B1F8881003E0412D02D3B1F88610C6
:101FA0000844417819B30278AA42F9D1801C70BD67
:101FB000B1F88A100C1826460021304600F019F8B6
:101FC00004440221304600F014F8361DA842F3D331
:101FD0004FF6FF72207802EA00216078084306D0AD
:101FE000A84201D1E01C70BDA0780444F2E70020B3
:101FF00070BD08444FF6FF720178407802EA012173
:10200000084480B2704730B5054600F160040166AF
:102010000020207315F8781F2046FFF7C7FEA07236
:1020200069782046FFF7C2FEE072A87EA07310B167
:102030000020E07330BD0120FBE74D2919D00CDCF6
:102040002B2916D004DC292913D02A290ED110E01F
:102050002D290ED04C2909D10BE0002250290AD09D
:10206000512908D0522906D0532904D0012180F8E3
:1020700027100120704780F82720FAE78A4205D20E
:10208000834201D89A4203D9012070478342F9D88C
:1020900000207047F0B502F007060124B440002587
:1020A00090F892E0E7B2DDF814C02C46BEF1010FC3
:1020B00001D83D4600D03C46076822F00702BCF13B
:1020C000000F3F7C07FB02F7BAB2476B3A4411445A
:1020D00009D108785B1E284360401B0401F8010BFE
:1020E0001B0CF6D1F0BD0A78761C2A436240A3F19E
:1020F00001030A7016F007069BB206D06A06150E99
:102100006206140E002BEED1F0BD428F114490F800
:102110009220012A03D800BF4FF00105F2D04FF002
:102120000104EFE70821017000487047F00100202A
:1021300070B5054608782870487868708878A87067
:10214000C878E870087928714879687188790C46F0
:10215000A871E079E871207A2872607A6872A07AB2
:10216000A872E07AE872207B2873607B6873A07B9A
:10217000A873E07BE873207C287411212046FFF7C8
:1021800038FF688213212046FFF733FFA88215210C
:102190002046FFF72EFFE88270BD2DE9F843064682
:1021A00090F8387090F83950006800244FF6FF78A6
:1021B00090F81190316830462A460B7C716B04FB15
:1021C00003FC1FFA8CFC08EACC0C6144009100214E
:1021D00000F040F8641C6D1CE4B2EDB2BC4201D2C8
:1021E0004D45E7D3BDE8F883F0B590F838204FF6B9
:1021F000FF75036805EAC2018187197C05EAC10100
:10220000418790F8394005EAC401C1875E7CA71870
:10221000B74201D9321B92B205EAC20220F8401F30
:1022200011444180998A8180D98AC180F0BDFFF72D
:10223000DBBF0021A0F84810B0F84410A0F84A1005
:10224000B0F84010A0F84C10B0F84210A0F84E10B2
:10225000FFF701BD1CB58DF805108DF80620049C14
:102260008DF804300094012284686B460F21A0474A
:102270001CBD30B484680023A44630BC1A460A2131
:10228000604730B484680023A44630BC1A4610214D
:10229000604730B484680023A4460A4630BC0B2152
:1022A00060472DE9F04115460E460446069F00F0B2
:1022B00009F86761A660C4E903532046BDE8F04110
:1022C00000F012B8002140F8081B064A0260426084
:1022D0008260C260C17681770161FF21017780F859
:1022E000201070470527000830B484680023A446F6
:1022F00030BC1A4609216047080001D00A2801D1E4
:102300004FF6FF70704730B404690023A44630BC18
:102310001A461921604713B50122046901AB172140
:10232000A0471CBD30B404690023A44630BC1A4643
:10233000182160472DE9FF41354C1D4616461829E6
:102340003ED004DC14291CD0172904D114E019292B
:1023500057D0202959D0002004B0BDE8F08100BF3B
:1023600015F8011B2046FEF7A9FB39462046FEF76B
:10237000D8FA0028F9D000E0264F761EF6B2EFD248
:1023800043E001214805FEF74FFD0020ADF80400B1
:102390004BF6FF70ADF806001020ADF80800800184
:1023A000ADF80A000001ADF80C001B48009069462A
:1023B0002046FEF71DFB01212046FEF7BEFA24E071
:1023C0004FF4003529462046FEF7FCFA0028F9D1E3
:1023D00001212046FEF7E2FA104D20462946FEF77D
:1023E000A0FA0028F9D0002278212046FEF75EFBF3
:1023F000084DAD1E29462046FEF793FA0028F9D075
:1024000003E001212046FEF7D3FA0120A4E70000F3
:102410000054004084000700801A060001000300F9
:1024200030B4C4680023A44630BC1A461921604762
:1024300030B4C4680023A4460A4630BC1621604765
:1024400030B4C4680023A4460A4630BC1521604756
:1024500030B4C4681346A4460A4630BC172160470E
:10246000F8B50C464FEA000514F8011B182924D0D2
:102470000EDC152919D0162917D0172923D1207859
:102480008DF800006A4601212846FFF7E1FF0AE0C7
:10249000192912D0FE2916D122788DF80020292181
:1024A000284600F031F9641CDEE722788DF8002020
:1024B000EE6800232846B047F5E70023EE681A4689
:1024C0002846B047D0E7F8BD30B4C4680023A4461E
:1024D00030BC1A46182160472DE9F041DFF8B08082
:1024E00014460646A1F11402002798F800001D4684
:1024F000062A4AD2DFE802F02F03161B3E4310B132
:102500003046FFF700FF3046FFF70CFF0021304652
:10251000FFF701FF21463046FFF7FDFE012088F856
:10252000000029E021463046FFF7F5FE24E050B1D7
:102530003046FFF7E8FE06E01821304600F0EAF8E2
:10254000183CE4B21835182C2A46F5D821463046F6
:1025500000F0E0F80EE096F82400FF2802D1782081
:1025600086F8240037692B4622463046BC46BDE833
:10257000F041604788F800700120BDE8F081002834
:10258000F8D03046FFF7BFFEF4E70020F5E7000083
:102590001400002070B50023456904461A4628211E
:1025A000A8470023E5681A4614212046A8470122BF
:1025B0004B21204600F0A8F8206829210279204606
:1025C00000F0A2F800224B21204600F09DF8206880
:1025D00029210279204600F097F801224B2120465C
:1025E00000F092F82068292142792046BDE8704029
:1025F00000F08AB80160897C80F8221070470000E2
:1026000070B50C46054600F019F888B9092C0BD0B6
:102610000A2C01D0002070BD2846FFF7BBFF0549FA
:102620002846FFF71DFF03E003492846FFF7E2FFB6
:10263000012070BD16400008184100082DE9F04146
:102640001E46144605460B2908D00D290ED00E292A
:102650001ED00F2927D00020BDE8F0811AB12849EB
:10266000FFF7FEFE4AE02649491FF9E74AB124492F
:102670000C31FFF7F5FE286890F8130085F822006A
:102680003CE01F49491DFFF7EBFE2868807CF5E719
:10269000FFF71AFF81212846FFF7D2FE2146284680
:1026A000FFF7C6FE27E0FFF70FFF707995F82210BD
:1026B00001EBC000C7B240212846FFF7C1FE102041
:1026C00040EA17112846FFF7BBFE07F00F01284626
:1026D000FFF7AEFEB07940F0B0012846FFF7A8FE44
:1026E00030793268C006010E2846FFF7B1FE641E3D
:1026F00014F0FF04F4D12846FFF792FE0120ABE767
:10270000F53F00080020704730B444690023A44618
:1027100030BC60472DE9F04115460E460446FFF7F0
:1027200001FE40212046FFF7F6FD27692B46324681
:1027300017212046B8472046BDE8F041FFF7E3BD2A
:10274000002180F8261070470288511A01807047D6
:10275000028811440180704710B503780C78A342B9
:1027600006D21344DCB204700B789C4200D903708B
:1027700003780C78A34206D99A1AD2B2027009786B
:102780008A4200D2017010BDC0020302030401039B
:1027900004060C00FD08FE09FF018C034B0A5E20B5
:1027A00007E6F1F39F00210AE6F12369EF60CE000E
:1027B000220BE6F12759922539BF002311E6F1C318
:1027C000493448499664493448494E062412E67112
:1027D0008543524BC231C9922C498630A700250D42
:1027E000E6F163514B1AA649D4CE02260FE6F12337
:1027F0005AD4668B122D5A7222002709E6F12369FA
:102800009D9F00280BE6F16961DA73ACC300290AC9
:10281000E6F1C8D51E339D022A0DE6F153A34C1AEA
:10282000262DCA19012B0BE6F193D36CD0D29C193B
:102830002C0AE6F1F3290D7312002D09E6F1731A43
:10284000749E002E08E6F1F34BCE002F0DE671A624
:10285000611AA6611AA6390D3010E6F14F591229F6
:102860002D52922559B49301310AE6F123A1DAE3FE
:102870004E06320DE6F14F595A9AD274D0A9003360
:102880000DE6F14F599AC96992453B19340CE6712E
:10289000A7A59E0631CDC900350EE6710F4A9A0EE6
:1028A000715A19723200360FE6F14F693A44599263
:1028B0002559B49301370BE6710F4A9686D57606F3
:1028C0003810E6F14F5992455396644916ED64006D
:1028D000390EE6F14F5992255934A4A59D0C3A09B9
:1028E000E6F1B3E64C39033B0BE6F1B3E6B434CC86
:1028F00049003C0AE6F163616BDC4E053D0AE6F1F6
:10290000B30DFAA073033E0AE6F1C7AD613B0B00BD
:102910003F0BE6F14F591A567330674010E6F14FFE
:10292000599225C9922CC9120F39154111E6F14F60
:10293000599225593228599225594E054212E6716D
:102940000F519664C91065499664C9909301430B71
:10295000E6F10F49DAF39053014412E6710F5196F4
:1029600064499664499664C9909301450EE6F10F57
:10297000499A0E515A1E722A00460CE6F10F499AE6
:102980000E51DACE044710E6F10F495A59B2244BE2
:10299000B268C8A9004812E67167499664C9A06484
:1029A000499664499653014909E6F18F698F3B19AD
:1029B0004A0AE6F18F696F3A0B004B11E6716749DD
:1029C0009644D116D5922CC9722A004C0AE671A7FA
:1029D0007D1E722A004D10E67167896550BA25592F
:1029E0009225594E054E10E67167899448493F2952
:1029F0009192E554004F10E6F14F599225599225D6
:102A00005992453B19500FE6710F51966449960C47
:102A1000515A67025111E6F14F59922559922559A1
:102A20009245AB0E035212E6710F51966449960C13
:102A300051966449965301530DE6F10F491ACF6937
:102A400065C8C9005409E6710F5ADA77065512E6CF
:102A50007167499664499664499664D190530156CA
:102A600010E6716749966449966449166D3B19579B
:102A700011E671674996644996B40C8A25CBA90082
:102A80005811E671674916256125CA922CC9722A28
:102A9000005910E6716749966449160D6965C8C901
:102AA000005A0CE6710F6AD8351D742A005B0BE6DC
:102AB000F10C51DAAF430E035C0DE671A4711AA755
:102AC000711AA7390C5D0AE6F10C697F1A72185E5B
:102AD0000AE6F123611265393F5F09E6F1F3EBA0E5
:102AE000C3006008E6F1C7757E01610EE6F153E7A9
:102AF0006848B2248B869C0A6210E671A7E91065CB
:102B000049966449960C3919630CE6F15387246D94
:102B10001E722A006411E6F1636934245992255922
:102B20009245434E05650FE6F15387244BB264503E
:102B3000E221A702660CE6F123531A0E59DACE02FF
:102B40006711E6F15387244BB2244BB2684E861CC2
:102B5000016810E671A7E9106549966449966439E1
:102B600015690BE6F12339A676D5C9006A0BE6F1A3
:102B7000433998F6A653006B0EE671A7A54A2626A0
:102B80005954CBA9006C09E6F1A77DD6C9006D0D9B
:102B9000E6F1138728E9DF922CA7026E10E6F11305
:102BA00087284BB2244BB224CBA9006F0EE6F15319
:102BB000A72CC9922CC9A29D0C7011E6F11387288D
:102BC0004BB2244BB26488D22A007110E6F15387CD
:102BD000244BB2244BB268485B00720CE6F1538779
:102BE000244BD2762600730DE6F15387249ED364DE
:102BF000C8C900740BE6F1A7E19836EB64007510C4
:102C0000E6F113B3244BB2244BB268C8A900760E88
:102C1000E6F113B3244BB2248B923067770FE6F1C1
:102C200013B3244B5A06C592E55400780EE6F1130F
:102C3000B3248BB6294BB29C0A7911E6F113B32465
:102C40004BB2244BB268482B43047A0CE6F11307CD
:102C5000356C1C742A007B0CE6F169694D94D3B283
:102C60000E037C08E671A5FD3B057D0CE6F1C86905
:102C700059D4D29A4E017E0AE6F1738B9244E7084A
:102C80007F07E6F1F39F00A007E6F1F39F00A10A9A
:102C9000E6F1233998F6CE00A211E6F1E3E190D4F3
:102CA000922CC99270C8720A00A30EE6F1235A54FE
:102CB0000D872C4C079D0AA40DE6F153A34C8BDA2B
:102CC000B428A702A50DE671675112866338A639AC
:102CD00003A60AE671A5EDB4B49D02A70FE6F123A1
:102CE0005A94A55AD49B9A459904A808E6F1273925
:102CF0007F06A911E6F10F4928254AA4448A311913
:102D0000722A00AA0DE6F1237236D57664C819013D
:102D1000AB0FE6F193A3244AA2B6288B722200AC33
:102D20000AE6F1731AD43A2300AD08E6F173DB79B1
:102D300003AE10E6F10F49A85892C5928CC9905382
:102D400001AF07E6F1EFFC19B00AE6F1235AD4A669
:102D5000F309B10DE6F1E3693668690E0D3A15B273
:102D60000CE6F1235A9486C521E706B30CE6F1235D
:102D70005A14C6514DE708B409E6F143619DDF00DE
:102D8000B50CE6F113A3FE69A9E62000B610E6F142
:102D90000F499F942CC9922CC9929C0AB708E6F15E
:102DA00073CC7904B809E6F1F37B1A8600B90AE618
:102DB000F123A1DAB87304BA0DE6F1235AD49B0EBD
:102DC0000D392300BB0FE6F113A32CCAA296288964
:102DD000723200BC10E6F1846A2D89C2A296D486B4
:102DE000304D00BD0FE6F1846A2D89C216A5141678
:102DF0008700BE11E6F1685118279234865A521B9B
:102E0000C23401BF0DE6F123399886D52CDAC9000A
:102E1000C011E6F1C4E19425593228599225594E42
:102E200005C111E6F185E1942559322859922559B9
:102E30004E05C212E6718549366549960C4A96647C
:102E400049965301C313E6F14449A24D5992258393
:102E500092255992E55400C411E6F1D4A1294BB250
:102E60006450B2244BB29C0AC512E671854936659E
:102E700049960C4A966449965301C611E6F10F49EA
:102E80002DC9926C506A4996EC5400C70CE6F10FBC
:102E900049DAF390A56108C80FE6F1C4E190A4E90E
:102EA00010A5F1905301C90FE6F185E190A4E91056
:102EB000A5F1905301CA10E67185493624693A4458
:102EC000693CE45400CB0FE6F1D4A12149D3214A57
:102ED000E321A702CC0BE6F1C4E19876DCC900CD72
:102EE0000BE6F185E19876DCC900CE0CE6718549E8
:102EF00036A61D773200CF0BE6F1D4A131EDB893A1
:102F000001D00CE6F16F51CB12F5692703D111E620
:102F1000F144492265899448493F29914E05D210D0
:102F2000E6F1C4E194255992255992453B19D310F5
:102F3000E6F185E194255992255992453B19D41122
:102F4000E67185493665499664499664D14E06D541
:102F500012E6F14449A24D59922559922559B4934C
:102F600001D611E6F1D4A1294BB2244BB2248B76C1
:102F70003200D70CE6F153A34CD4A29C1B00D8100E
:102F8000E671465396444A5FA4248BA69C06D91149
:102F9000E6F1C459254BB2244BB2248B869C0ADA45
:102FA00011E6F18559254BB2244BB2248B869C0A3D
:102FB000DB13E67185499425599225599225593498
:102FC000E45400DC12E6F1D4912CC9922CC9922C65
:102FD000C9A221A702DD0FE6F18559254BB2684849
:102FE0002B434E06DE11E6F1A3E9106549966449CC
:102FF000960C514E03DF0FE6F16B51972CAA255228
:1030000092E86400E010E671C539344743922559CF
:1030100034E45400E110E6F18539364743922559EE
:1030200034E45400E210E67185490ECDD190644934
:10303000160D3915E311E6F14449A24373342459BE
:103040009245434E05E410E6F12739344743922573
:103050005934E45400E510E671854918CED19064E6
:1030600049160D3915E60FE6F113152D8994CA524C
:103070001C722A00E70DE6F15387246D1EB2340C52
:1030800001E810E671C539342459922583120F39AD
:1030900015E910E6F18539362459922583120F3946
:1030A00015EA11E67185490E0D499664C9A0C4431D
:1030B0004E05EB10E6F12739342459922583120F7F
:1030C0003915EC0BE671C539A476D5C900ED0BE6D0
:1030D000F18539A676D5C900EE0CE67185490EA9B1
:1030E0005D753200EF0BE6F12739A476D5C900F003
:1030F00011E6712461259CB2244BB2248B763200F8
:10310000F113E6F14449A22343942559922559929B
:10311000E55400F210E671C53934654996644916E4
:10312000ED6400F310E6F185393665499664491679
:10313000ED6400F410E67185490E4D5992255992BF
:10314000453B19F511E6F14449A24353966449966B
:1031500064D14E06F610E6F1273934654996644984
:1031600016ED6400F70BE6F1937368D0A19C19F893
:103170000FE6F193A229525AA4248BA69C06F911BA
:10318000E671C5399225599225599245434E05FA63
:1031900011E6F185399425599225599245434E05FA
:1031A000FB12E67185498E64499664499664D19014
:1031B0005301FC11E6F12739922559922559924580
:1031C000434E05FD13E6F185399425599225599210
:1031D00045435A192200FE12E671A7E91065499687
:1031E0006449960C519A8300FF13E6F12739922522
:1031F000599225599245435A19220000000004FFB4
:10320000FF00005F00030204050305060F11FFFC29
:103210000CFC0CFC01D7040B059C200500184B216D
:1032200007C10C4BBC082208448A4D444E012317A9
:10323000B808D345611446D13044C5288CA26188B2
:103240008A511865002418F7EAD285831245522462
:1032500085492AAB491849915419C438032516CC1D
:1032600008DDAC51D64FE99483399683D11A65FDB8
:10327000942E002616CA08D7E9511AB646B99E44BC
:1032800059254AB3542B65630027084288470C49E7
:1032900001280C03CB4C255125EAB7A816290D03AC
:1032A000CB4C64512DEA97A812012A0A55784D5546
:1032B0002A53520B2B12990855E6488EE448381CC5
:1032C0007324477224042C0842EAC85414002D07C2
:1032D00014484B0C012E06210C49082F0CC408CBB6
:1032E00095B2A6AC94D5003010C70A536DA52C49F1
:1032F0007D4DB228CB26003109C30E535596A83F09
:103300003210C70A536D95548DD3A298C6F130047C
:103310003310C70A536D9554ADEDB9AA265936013D
:103320003413C80853AA499A845118659DC2681875
:10333000D4BC043511C70A530D529CC643568F6343
:1033400035C9B2093612C70A530D51A8CAC9A425F6
:10335000A96B92651300370FC808531CF4B81EE719
:10336000715ECE53003812C70A536D95544DB26C3E
:10337000ABA4D624CB26003911C70A536D95D4359A
:10338000C9A42556C56888003A07910C49A8023B94
:103390000AB2EAC8D4C12451003C0E9908D5ABCE7C
:1033A00039A4433AA443023D0A4828551C74D2303C
:1033B000083E0F990A55E8900EE9900EC5AA3B0009
:1033C0003F0EC70A536D95548DD3E61CAE014023C2
:1033D000EDEAE20EB928E648140E49146991164642
:1033E0005298496126855112994A9396C3AA3C88FE
:1033F000004117CA0857EA881EC5511CA561DB3079
:103400004871142739A223014215C90A57DCD22872
:103410004EE2248D86218A93DC391986084318CA26
:103420000A590EA118E5498EE4500EE5508EE5507C
:103430001E89E910014417CA0A591C53294FF22466
:103440004774444774444FF224958611450CC80ACA
:1034500057BCB70FF7EEC320460CC70A551CE4E66D
:1034600061907B064717CA0A5BAE9A94273992434C
:1034700039140E3B524F62494BC229480CC90A59B4
:10348000E4DE8783EE7B004906C10A497C4A0BC60D
:1034900008D1F6AB684C86044B15C80A57C46A12AB
:1034A0004659294C44296B8CD2244DE2004C0AC762
:1034B0000A53C4FDE761084D1DCB0A5BE4D03EE42E
:1034C0004B9A2869A2A489944552164959A4259972
:1034D000966462014E15C90A59E4B3922AA9146A86
:1034E000999689919AA889BC074F17CB0A5BCE9A07
:1034F00096477992433AA4433A94E4519E994700FF
:10350000500EC80C579CD224B626C394F70E511AFD
:10351000DBFA5ACE9A96477992433AA4433A94E416
:10352000511865E6250713005217C90C59DCD2283B
:103530004EE2248D862D8DE2244EE2244EF200537D
:1035400016C90A570D5A9AE47A92433AB44349AEDF
:1035500027693648005417C908553CE6488EE448A8
:103560008EE4488EE4488EE4488E8400550CC90AE7
:1035700059E4FE7B926683045616CA0857E4888E87
:1035800094A3388AB3B0358AA338CA754404572047
:10359000CD0A5FA4A99AAA952CC9A22CC9A22CC9AC
:1035A0002A591226591226599296D338CD00581608
:1035B000C80A57C4491885591446A9AC4661948570
:1035C0005198C4015916C90A57E4491AA559314BF3
:1035D0009378CF911CC9911C09015A0FC908D50CC9
:1035E000839EEB75BDAED787035B0AF3DA4A0C51B5
:1035F000FFA7015C0CC4084B6461D69815B3025D4B
:103600000AF3D84A4CFD9F86005E0E7758D1A54933
:103610009864A52C49D5005F0619D8523C60083340
:10362000A84D445A006112980AD30C529AC7D290FE
:1036300054933409A52111620FC70A53C42D9396E0
:10364000A45EB7249900630D970A516D95546E4D91
:10365000B26C02640EC70A53372DB5D56B92494B35
:1036600000650F970A536D95541DCE69926513003E
:10367000660CC40A4B29593424593F016711D7CA33
:10368000522DB5D56B92494BAC8AD11001680CC74D
:103690000A53C42D4322AA7E0D6908C10A4728C3D4
:1036A000016A0A03C74855A3FED3026B12C708512B
:1036B000C48D4916D592708CB25298A4016C06C183
:1036C0000A477C6D139B0C5D24D3A219433114432C
:1036D00031144331140B6E0B970A53244322AA7EF4
:1036E0000D6F0D970A536D95D46B92651300701092
:1036F000D7CA52249396A45EB72499E26600710E4D
:10370000D7CA522DB5D56B92494BDC01720A940A87
:103710004B244394F50D730E960AD10C4928CEF232
:1037200028264302740BB40ACB64D190647D1475CF
:103730000B970A53A4FEA80C49007611970851A4D0
:103740006A9245599455C2245C330077159B0859F9
:1037500084A158C94AD1D412654963D29AC5590681
:103760007810970851A449166595B49295B2240D26
:103770007912C7D850A46A924559254CC2354EE3F8
:1037800050057A0B960A515CC3D6B03A0C7B0C03F9
:10379000CB4C25512F59D4B7007C0701CB48FC10E6
:1037A0007D0C03CB4C64516F49D497087E08284A9E
:1037B000D56CDA0200000004FFFF00005F00030385
:1037C00005050405061614FDFC0EFC0EFE026D0533
:1037D000BA080B200600602C01210FC425342339C0
:1037E0001C2C2265C92122012209A5644621E1453C
:1037F00000231B8B616429114BC412D96172984953
:10380000C412D961729849C412B14408242149A64E
:103810005B1987846B924829520A5582B643E81097
:1038200033464AA14AA8129195E39020002529EE3B
:10383000E17B35938A26415948280B456511A92813
:103840007D2487C6C6225134240B8A64C1982CA6D5
:10385000148C4EE330002624D0258C4B078AE420BC
:10386000991C2493832672581D3AABD98413527045
:10387000561D52A7B4DA21741B012707A2642E71CA
:1038800018281105A23327128D442399DE66B299B8
:103890005000291005A2332194CD64337D1A894646
:1038A0006A002A10E7E045354A9A44442349649463
:1038B00034022B154A215C2987C8217288F07030A8
:1038C000CA2172881C22042C0BE4602B2339444645
:1038D000D9002D0765E034F1102E0A84202C2339FD
:1038E0004424002F0FC6213CA918540C2A06158326
:1038F0008A003013C9255C379C8C6492997F9BC8E1
:103900004493E10C00310BC7295C271C15F79F0E6F
:103910003215C9255C47134D66B6896C3C1D4FA70F
:1039200062D5C3A1003317C9255C47134D66B6891C
:103930006C2C9C83E41399DB44342B013416C92589
:103940005C1F174F1923B3D028368A4D8293837496
:103950003C2D3518C9255C73889CE29038240EB143
:10396000C5E6E389CC6D229A95003616C9255C57C9
:103970005A91D924E3C988B2E66D229B8C84330026
:103980003711C9255CF1509E8AE562B97875BC1182
:10399000003815C9255C379449A4D4E245643485C0
:1039A0008E556A4D46033917C9255C37144D66920A
:1039B00099B7C98434194F6436C96854033A0D2441
:1039C0002534233944C4924344023B0F8465332396
:1039D0003944C4924364940D003C114A215C0F1198
:1039E0001339D32174081D4287083D0BC9A45CF12B
:1039F00040473C1C083E124A215C2187D0217408B4
:103A00001D4226729643003F12C921545712DD6CA5
:103A100013D958772431952C044027CF21847B1E5D
:103A2000CBE4A090AC241129916422924C4491895A
:103A3000246A2289D244249A10E5A0D8587C08022E
:103A40004120CE1D741F07CB8173201D1499834222
:103A500072486C1E1B47A7076178181FC927D4023C
:103A6000421ECC21747198CD48C3D170341CCD66F0
:103A700087E0D274329D4C27D3C970729001431DE8
:103A8000CC2174590AB18C25E33A840EA183E6A0B7
:103A900039680E89CC23E3184D5A03441FCE218484
:103AA00071980E69E3D178349FCC27F3C97C329F9B
:103AB000CC27E3D17834241D8600451FCB216C71BF
:103AC000A00C2753C92C1499852223E171249C054D
:103AD00067A1C83832950C0F07461ECB216C71A028
:103AE0000C2753C92C1499852223E171249C056766
:103AF000C139640E995B014721CD217C598A9148D7
:103B000063D158328744E690C81C36874D0FE1D107
:103B100074349D91A8A50800481ECE218451AC8C18
:103B200047E3D178341E8D4787D278341E8D47E322
:103B3000D178349E140B490AC5254C5119ED7F29C3
:103B40004A13CA1D645B9EEF936C429A9026C29101
:103B50006848044B1ECE2184512B4D8543E94C3CD3
:103B6000924FE4103BE43E218FA833E29036A5D477
:103B70000C4C10CA2164519EEFAF91696428991DC5
:103B80000C4D2DD1219C612E9169555A641899854F
:103B90006691596816998546A1596C129AC526A155
:103BA000598C360BCE66C1D968189CD462054E215B
:103BB000CE218441AD5067D42035584CA10543A493
:103BC000608C120C16A3C428313C1B8BCA21004FF9
:103BD0001DCE21846926D1C6A3F1640EB143EC1039
:103BE0003BC40EB1439647E319896C04501ECC21A7
:103BF000747110CE4843CA9032A40C2933D22138B4
:103C000007CD4173D01C3487D40151284E228369DB
:103C100026D1C6A3F1640EB143EC103BC40EB1D063
:103C200026A39168269951CA76A81C3A8983EAB0DE
:103C30001100521FCD218471A00D49D3D174341DC0
:103C40000D6787E86C381BCE68C3D970369C18277F
:103C5000005316CA21644709AD0C25D308D97A351B
:103C60005BCBD5D3245402541CCB216C7130ADCD29
:103C70006433D92C3887CC2173C81C3287CC21738C
:103C8000C8BC06551ECE218451AC8C47F3D83C36B7
:103C90008FCD63F3D83C368FCD63F3D83C38941B7B
:103CA000015622CF1D7461AC9067F320353C0D4F57
:103CB000E3B3386416074DE2B0491C3887CEC171B2
:103CC000781C005730D41D9C61315568C4D9701AD6
:103CD000A4D1C2335A78460B5322943864129AC442
:103CE0002193D0240EA1D161C3396C380786E3D06B
:103CF000701800581FCF218C63AA11A734F9480E01
:103D0000B1C3E8503AAC0EB3434464E174481B536A
:103D10008A06591FCD217C61A35065D3204D3A0BF3
:103D200053E2903A680E9BC3E6B0396C0E9B436E2B
:103D3000005A19CC216CF1102E4FC294289D0E9977
:103D400043E8AC1172645C3E1C025B0A04A633615A
:103D5000D2FF13015C12C8214C21968BE562B95841
:103D60002E968BE562015D0A04A23341D2FF9301D6
:103D70005E0E08A14D27961269222D42A2005F0710
:103D800049604BF140600885A43E215B1461122A12
:103D9000215C739A4D8463DA646D329B8C98066261
:103DA0001FCC1D644107CD4173D01C34074D88B42E
:103DB000D174329D4C27D3C974421B496A00630FEA
:103DC000292154571A19CB5B2333190900641DCCE0
:103DD000216C4F07CD4173D01C34A48C6694E964E8
:103DE0003A994EA693E96846A41065122A215C47C9
:103DF0001C4D86C6C3413E8E0C652500660EC8214B
:103E00003C4793EC3AB44DF7B106671EEB215B0FCC
:103E1000924346C6D14C2813CA4643A31C74081EBD
:103E200022D289583294DD00681ECC216C4107CD26
:103E30004173D01C34074D6A24D270341C0D47C323
:103E4000D170349C940A690CC52134335A0792F618
:103E50004B016A0F471633B91D8DB83F5A2C2212F9
:103E6000006B1DCC216C4107CD4173D01C34078DF4
:103E70004A33E1283C115F27C4116D46A9186C0A2A
:103E8000C5213441DAFFA5006D183321A441A9D81A
:103E90004825D27069B8345C1A2E0D97862BA5067A
:103EA0006E152C216C41A99148C3D170341C0D476B
:103EB000C3D170522A6F0F2B2164579C4DA6BE4E62
:103EC00066C31A00701CAC1D633122D246D3C9747C
:103ED000329D4C27D3096D3421CE4173D01C52073B
:103EE000711CAC21634712CD28D3C974329D4C2775
:103EF000D3D18C489983E6A039680E29720F282106
:103F00004C4111512423C974C71A0073122921543A
:103F10004509C924C388F16A2D4A2225007411A7D6
:103F20002144178E0A67A6E19E22A310050075158D
:103F30002C216C51220D47C3D170341C0D47C31185
:103F40005B850076142A1D4C519A0C43C3D828383F
:103F50008A92E972881000771B301D7C51294D66CA
:103F6000C3D06C181B91822352944426D185728849
:103F7000500878122B216461619351A4F579554260
:103F800093512806791BAB2163519B4C43D3D82C0A
:103F9000388B4EC293F81C32074565D1497C0E7AA6
:103FA0000E29215471A0D588DC8AC403017B0E053B
:103FB000A2332712EDA4281BED26147C07C2315C26
:103FC000F1037D0F05A23321948DB60945A23DA9C9
:103FD000017E0B6A2465B572888C460000000004DF
:103FE000FFFF00002F22000833220008131D0008E5
:103FF0001815AF19FF1815AE19FF1815A115C81916
:10400000FF1815A015C019FF1815A115C019FF1824
:1040100015A015C819FF1815AE15D5168015A816C8
:104020003F15D316001540158D16141520160015D2
:10403000A115C815DA1612158116CF15D916F11566
:10404000DB1640152E15A415A619FF1815AE15D5AB
:10405000168015A8163F15D316001540158D161499
:104060001520160015A115C815DA1612158116EFC0
:1040700015D916A115DB1600152E15A415A619FFC6
:104080001815AE15D5168015A8163F15D3160015B0
:1040900040158D16141520160015A115C815DA1631
:1040A00002158116CF15D916F115DB1640152E1500
:1040B000A415A619FF1815AE15A415D5165015A8E8
:1040C000163F15D31600154015AD168B15D91622BF
:1040D00015DB16351532158116FF15A615DA1612E1
:1040E00019FF1815AE15D5168015A8163F15D3164D
:1040F000001540158D16141520160015A115C015B4
:10410000DA1612158116CF15D916F115DB164015E2
:104110002E15A415A619FF000001140A646432329A
:1041200000127A0000042896100800008000400069
:104130000001140A6464323200093D00000428962C
:104140001008020280004000000000000000000093
:10415000000000000000000000000000C00180031B
:10416000F003E00730E67F0C18E43F181C0000184D
:104170000C0000330C008037840180378601006317
:10418000E6073060E6077860860178608601306077
:104190000600006006F81F6006FC3F60060C3060F9
:1041A0000C0660300C0660301803C018F803801F3E
:1041B000E000000700000000000000000000000018
:1041C00000000000000000000000000000000000EF
:1041D000000000000000000000FE0100C0FF0F0012
:1041E000F0003C00380070001C00E0000E00C00130
:1041F0000600800102000003030000038333060A67
:10420000833306330300003302000063060080415D
:104210000C00C0811C00E08078007080F8013E40F6
:10422000F8FF0F6018FC0170040000380000073E22
:104230000000FC3B00000020000000000000000027
:10424000000000000000000000000000000000006E
:10425000000000000000000000E007000020040053
:104260000027E400803DBC01C0100803C00000032B
:10427000800000018001800180E18701F0300C0F97
:10428000101008081010080810100808101008086E
:10429000F0300C0F80E08701800180018000000376
:1042A000C0000002C0000003803DBC010027E40004
:1042B0000020040000E007000000000000000000F3
:1042C00000000000000000000000000000000000EE
:1042D00000000000000000000000000000000000DE
:1042E00000000000000000000000000000000000CE
:1042F00000000000000000000000000000000000BE
:1043000000000000000018000000003C0000000059
:104310007C00000000FE00000000FF01000080FFA4
:10432000010000007E000000007C000000007C0016
:104330000000007C000000007C000000007800000D
:1043400000007000000000E000000000800000009D
:10435000000000000000000000000000000000005D
:10436000000000000000000000000000000000004D
:10437000000000000000000000000000000000003D
:10438000000000000000000000000000000000002D
:1043900047414D450000000000004D455353414743
:1043A0004500000053455454494E470000000400A6
:1043B00000080000000000000002000100001000E2
:1043C000746869732069732073657431000000009C
:1043D000746869732069732073657432000000008B
:1043E000746869732069732073657433000000007A
:1043F0007468697320697320736574340000000069
:104400004D4553534147450047414D45000000008D
:1044100053455454494E4700455849540000000044
:1044200067616D65313A466C7942697264000000DB
:1044300073657474696E67313A466C794269726467
:104440000000000067616D65343A546574726973E9
:104450000000000073657474696E67343A546574C3
:104460007269730067616D65333A537469636B20D9
:10447000466967687400000073657474696E673319
:104480003A537469636B20466967687400000000E2
:1044900067616D65323A44696E6F7361757220525F
:1044A0006578000073657474696E67323A44696EAA
:1044B0006F7361757220526578000000DC4400085B
:1044C000000000205C0100002801000848450008A9
:1044D0005C010020F40A0000840100084502040683
:1044E000082D0102030404B50607080995010E54BE
:1044F0000D7230230D0E17E707091A4841140808FA
:104500004439401AC80C11590C1348426B08100C5E
:1045100019185A180C5A2008C10A1190140A11646B
:10452000140A1144140A1130140A11A4140A11783F
:10453000140A115414CBC0431432010A11D0140AC6
:0845400011E0140A11F014004F
:04000005080000ED02
:00000001FF
